:100000000C94670A0C948A5B0C945F5B0C94345BD1
:100010000C94095B0C94DE5A0C94B35A0C94885AD5
:100020000C945D5A0C94980A0C94980A0C94980AB3
:100030000C94980A0C94980A0C94980A0C94980AB8
:100040000C94980A0C94980A0C94980A0C94980AA8
:100050000C94980A0C94980A0C94980A0C94135ACD
:100060000C94980A0C94DD590C94B3590C94980A8A
:100070000C94980A0C94980A0C94980A0C94980A78
:100080000C94980A0C94980A0C94980A0C94980A68
:100090000C94980A0C94980A0C94980A0C94B55BEA
:1000A0000C94980A0C94980A0C94980A0C94980A48
:1000B0000C94980A0C94980A0C94980A0C94980A38
:1000C0000C94980A0C94980A0C94980A0C94980A28
:1000D0000C94980A0C94980A0C94980A0C94980A18
:1000E0000C94980A0C94990C0C94D40C0C945126F2
:1000F0000C94500E0C94570E0C94190B0C949D0CF0
:100100000C94AE0C0C94060B0C94800B0C94840E87
:100110000C94C20C0C9407130C942B0E0C942D0E03
:100120000C94B80C0C94D00C0C94C6110C94CF0CFD
:100130000C947B1D0C94200C0C94A31D0C948F0C20
:100140000C94CA0C0C94720B0C94B80B0C94D95CE4
:100150000C94A10C0C94C60C0C944F0B0C942E0E0A
:100160000C9472130C94B40C0C943D0E0C94180B5C
:100170000C94950C0C94BC0C0C944E260C942C0EE8
:100180000C9423680C94A40C0C947D210C945E0BAD
:100190000C94A61D0C9420100C94C61D0C94310FC9
:1001A0000C94AA0C0C94C40D00407A10F35A00A0D1
:1001B000724E18090010A5D4E80000E87648170030
:1001C00000E40B54020000CA9A3B000000E1F50570
:1001D000000080969800000040420F000000A086BA
:1001E00001000000102700000000E80300000000EC
:1001F0006400000000000A00000000000100000090
:1002000000002C76D888DC674F0823DFC1DFAE59A9
:10021000E1B1B796E5E3E453C63AE651997696E83C
:10022000E6C28426EB898C9B62ED407C6FFCEFBCC0
:100230009C9F40F2BAA56FA5F490055A2AF75C93EB
:100240006B6CF9676DC11BFCE0E40D47FEF520E621
:10025000B500D0ED902E0300943577050080841E04
:10026000080000204E0A000000C80C333333330F5F
:10027000986E12831141EF8D2114893BE65516CFFC
:10028000FEE6DB18D1844B381BF77C1D901DA4BB08
:10029000E424203284725E228100C9F124ECA1E5BD
:1002A0003D274F6666004F6E004F6666004F6E003A
:1002B0004F6666004F6E004F6666004F6E004F66D9
:1002C00066004F6E0044657669636520436F6E6615
:1002D00069670041444520566363203D2000414446
:1002E0004520566363203D20002C305800534420A5
:1002F0006572726F72436F64653A203058004E6FBA
:1003000020636172642C2077726F6E672063686966
:10031000702073656C6563742070696E2C206F7239
:10032000205350492070726F626C656D3F004361CD
:100330006E27742061636365737320534420636187
:1003400072642E20446F206E6F74207265666F7227
:100350006D61742E004E6F206572726F7220666F31
:10036000756E642E0043616E2774206F70656E2079
:10037000726F6F74206469726563746F72792E0096
:10038000496E76616C696420666F726D61742C20B1
:100390007265666F726D61742053442E00202020B8
:1003A0004E6F2053442043617264004368616E675E
:1003B000696E6720746F2074686520496E6974697E
:1003C000616C204469723A20004465627567204D73
:1003D0006F64652044697361626C656400446562A2
:1003E0007567204D6F646520456E61626C656400C1
:1003F00044313A203C626F6F743E3A2000426F6F86
:1004000074204469736B20496E6465783A20004219
:100410006F6F74204469736B204469723A20004501
:100420006E61626C6564004E6F204472697665731C
:10043000004465627567204D6F64652068617320B4
:100440006265656E2064697361626C656400443145
:100450002C2044322C20443320616E64204434200C
:1004600068617665206265656E20656E61626C65A7
:100470006400496E697469616C697A696E672045C8
:100480004550524F4D002E0045726173696E6720D2
:10049000454550524F4D3A00454550524F4D204E24
:1004A0006F7420496E697469616C697A656400468D
:1004B000726565205352414D3A2000456E74657255
:1004C000696E6720566F6C7461676520546573743C
:1004D000204D6F646500456E746572696E672043D8
:1004E0006F6E66696775726174696F6E204D6F64B7
:1004F0006500456E61626C696E6720616C6C2044BA
:1005000065766963657300456E61626C696E67202C
:1005100044657669636520340044697361626C697F
:100520006E67204465766963652035005374617297
:1005300074696E673A2041444520760062793A201A
:100540005365616E204D79657273004144452020EA
:100550002020202076003A204572726F723A205592
:100560006E6B6E6F776E20436F6D6D616E643A20B7
:100570000044002C205265636569766564207468C8
:1005800069733A20003A204572726F723A204578BA
:100590007065637465643A20004400202020526531
:1005A0006365697665643A2000202020457870658F
:1005B000637465643A20004572726F723A20536525
:1005C0006E64696E6720426C6F636B3A2000202076
:1005D0002052656365697665643A200020202045D5
:1005E000787065637465643A20004572726F723A80
:1005F0002053656E64696E6720426C6F636B3A20AE
:10060000002052657472792E2E2E004572726F7220
:100610003A2053656E64696E6720426C6F636B3A73
:1006200020003A203C204E6F204469736B203E002E
:1006300044002F003A200044003A204572726F7245
:100640003A2046696C6520746F6F206C6172676533
:1006500020746F20666F726D6174004400466F7283
:100660006D617420636F6D706C657465002E004E53
:10067000756D626572206F6620426C6F636B733AB2
:10068000200053697A65206F662066696C653A20A0
:10069000004572726F723A20466F726D61747469B0
:1006A0006E67206120524F4D2046696C65206E6F49
:1006B0007420737570706F72746564005265636541
:1006C0006976656420466F726D617420436F6D6D4D
:1006D000616E6420666F7220447269766520440002
:1006E0004D6F756E74696E672044313A20004E6F0D
:1006F00020426F6F74204469736B202020200041DA
:1007000075746F4D6F756E7420426F6F74204F6EED
:10071000004175746F4D6E7420426F6F74204F6E80
:1007200020004175746F4D6F756E7420426F6F7449
:10073000206F6666004175746F4D6E7420426F6F56
:1007400074204F6666004C6F6164696E672044696F
:10075000722E2E2E2020002020202020202020203D
:1007600020202020202020004368616E67696E678A
:1007700020746F204469726563746F72793A200047
:100780004C6F6164696E67204469722E2E2E2020A2
:100790000020202020202020202020202020202079
:1007A00020004368616E67696E6720746F2044693A
:1007B000726563746F72793A2000556E6D6F756E55
:1007C00074696E672044004C6F6164696E672044F1
:1007D00069722E2E2E202000202020202020202074
:1007E0002020202020202020004368616E67696E51
:1007F0006720746F204469726563746F72793A2060
:10080000004C6F6164696E67204469722E2E2E2041
:1008100020002020202020202020202020202020F8
:100820002020004368616E67696E6720746F204402
:1008300069726563746F72793A20004C6F61646904
:100840006E67204469722E2E2E202000202020204A
:10085000202020202020202020202020004368610C
:100860006E67696E6720746F204469726563746F88
:1008700072793A20003A20004D6F756E74696E6788
:10088000204400436F6D70617469626C6520426C36
:100890006F636B204D6F646520456E61626C6564AB
:1008A00000536B697070696E672074686973207299
:1008B00065736574003A20003A003A002020202039
:1008C0002046696C657320202020202000202020F5
:1008D00020546F6F204D616E7920202020005761D9
:1008E000726E696E673A204D6178696D756D204E44
:1008F000756D626572206F662046696C6573205263
:10090000656163686564003A003A003A004E756DAF
:10091000626572206F662046696C65733A004375A4
:100920007272656E74204469726563746F72793A8D
:100930000046696C657320696E20426C6F636B3A88
:100940000046696C656E616D65204C656E67746804
:100950003A004164616D20436F6D6D616E643A20B1
:1009600053442043617264204469726563746F72FA
:100970007920426C6F636B3A20004164616D2043C3
:100980006F6D6D616E643A2043757272656E74208E
:100990004469736B206F6E2044004368616E676921
:1009A0006E6720746F204469726563746F72793A60
:1009B00020004368616E67696E6720746F20446928
:1009C000726563746F72793A20004368616E67697B
:1009D0006E6720746F204469726563746F72793A30
:1009E00020003A20004D6F756E74696E67204400D8
:1009F000556E6D6F756E74696E6720440041646159
:100A00006D20436F6D6D616E643A20577269746931
:100A10006E6720746F20746865204C4344203A0050
:100A20004164616D20436F6D6D616E643A20526563
:100A30006672657368204C4344005265626F6F7440
:100A4000696E672E2E2E004465627567204D6F64B7
:100A5000653A200044657669636520373A20004492
:100A6000657669636520363A20004465766963657A
:100A700020353A200044657669636520343A2000C9
:100A80004164616D20436F6D6D616E643A205772F1
:100A90006974696E672041444520436F6E666967DB
:100AA0000044656C65746520436F6D6D616E6420F4
:100AB0004572726F720052656672657368696E671F
:100AC000204469726563746F72793A200044656CE2
:100AD0006574696E672046696C653A200044656CF0
:100AE0006574696E67204469723A200043616E271D
:100AF000742044656C657465205B2E2E5D00436137
:100B00006E27742044656C657465205B2F5D00441E
:100B1000656C65746520436F6D6D616E6420436F15
:100B20006E6669726D6564004164616D20436F6D2E
:100B30006D616E643A2044656C65746520496D6131
:100B400067652046696C6500496E76616C69642052
:100B500046696C6520547970653A20004572726F61
:100B600072206372656174696E672066696C6500E6
:100B700046696C65204E616D653A2000437265617F
:100B800074652044445020496D6167650045727268
:100B90006F72206372656174696E672066696C6547
:100BA000003A20002E003A200046696C65204E6114
:100BB0006D653A2000437265617465204469736B0A
:100BC00020496D616765004469726563746F72796D
:100BD000204E616D653A2000437265617465206145
:100BE000204469726563746F72790046696C652090
:100BF00053697A653A20004E756D626572206F66A2
:100C000020426C6F636B733A20004164616D204336
:100C10006F6D6D616E643A20437265617465204941
:100C20006D616765004572726F722072656E616DED
:100C3000696E6720646972004E657720446972208E
:100C40004E616D653A20004F6C6420446972204EFD
:100C5000616D653A20004F6C6420446972204E75C6
:100C60006D6265723A20004572726F72206F706516
:100C70006E696E672066696C6520666F72207265AA
:100C80006E616D65004572726F722072656E616D86
:100C9000696E672066696C65004E65772046696CF1
:100CA00065204E616D653A20004F6C642046696C8A
:100CB00065204E616D653A20004F6C642046696C7A
:100CC00065204E756D6265723A20004164616D2049
:100CD000436F6D6D616E643A2052656E616D652083
:100CE000496D61676500436C656172696E67204399
:100CF00075742F436F70792046696C656E616D6500
:100D000000436C656172696E67204375742F436F91
:100D100070792046696C656E616D650044656C652F
:100D200074696E672046696C653A20004572726F7F
:100D300072204372656174696E67204465737469DB
:100D40006E6174696F6E2046696C65210045727230
:100D50006F72204F70656E696E6720536F75726396
:100D6000652046696C65210046696C652045786997
:100D7000737473202D2052656E616D696E6700502B
:100D80006173746520436F6D6D616E64202D204327
:100D90006F707900506173746520436F6D6D616E83
:100DA00064202D204D6F766500436F707920466971
:100DB0006C653A20004375742046696C653A2000E2
:100DC000466F726D617420436F6D6D616E64204378
:100DD0006F6E6669726D656400466F726D61742036
:100DE000436F6D6D616E64204572726F7200416475
:100DF000616D20436F6D6D616E643A20466F726D58
:100E00006174204400203A2000203A2000203A203B
:100E100000534420436F6D6D616E643A2000000002
:100E20002100240027002A002D003000330001019A
:100E30000000040107010A0100002200250028002B
:100E40002B002E00310034000201000005010801D2
:100E50000B01000020002300260029002C002F0099
:100E60003200000100000301060109010505050526
:100E7000070508080808020202020A0A0808040412
:100E80000404010101010101010103030303030340
:100E90000303040707070C0C0C0C0C0C0C0C0202CF
:100EA000020206060606060606060B0B0B0B0B0BCC
:100EB0000B0B010210202008081020401020408059
:100EC000020102010804020101020408102040800E
:100ED000804020100804020180040201804020109C
:100EE00008040201080402010102040810204080E5
:100EF000010204081020408000000A0B02090C0DBA
:100F00000E080703040100000000000000000000BC
:100F100000000000000000000000000000000000D1
:100F2000000000001211100000000000000000008E
:100F30000000000000000000000000000000206928
:100F400073206C6172676572207468616E206669D7
:100F50006C653A20003A204572726F722073617698
:100F6000696E6720626C6F636B202D20426C6F632B
:100F70006B206C6F636174696F6E3A2000440045AA
:100F800072726F723A2057726974696E6720746F5B
:100F9000206120524F4D2046696C65206E6F742091
:100FA000737570706F72746564003A20577269745B
:100FB000696E673A200044003A204572726F723AB7
:100FC00020496E76616C696420436865636B737554
:100FD0006D2C20426C6F636B3A0044003A204572DE
:100FE000726F723A20526571756573746564206220
:100FF0006C6F636B206F7574206F662072616E6713
:10100000653A20004400206973206C617267657244
:10101000207468616E2066696C653A20003A20454C
:1010200072726F72206C6F6164696E6720626C6FA0
:10103000636B202D20426C6F636B206C6F63617457
:10104000696F6E3A200044006B00524F4D20466994
:101050006C652053697A653A20005761726E696E3B
:10106000673A20524F4D2066696C65206C6172674B
:101070006572207468616E2033326B2C206C6F6156
:1010800064696E672033326B003A2052656164698F
:101090006E673A200044003A204572726F723A201F
:1010A00052657175657374656420626C6F636B2043
:1010B0006F7574206F662072616E67653A20004418
:1010C00000436C656172696E67204375742F436FCE
:1010D00070792046696C656E616D6500456E68616A
:1010E0006E63656420426C6F636B204D6F64652096
:1010F000456E61626C656400436F6D706174696216
:101100006C6520426C6F636B204D6F646520456E8B
:1011100061626C656400206D7300536F66742052C9
:10112000657365742066726F6D204164616D4E65F4
:10113000743A2000436F6D70617469626C6520427F
:101140006C6F636B204D6F646520456E61626C65EA
:101150006400206D73004861726420526573657489
:101160002066726F6D204164616D4E65743A200097
:1011700044313A203C626F6F743E3A20004D6F75E7
:101180006E74696E6720426F6F74204469736B20C0
:10119000496D61676500446F75626C6520526573C7
:1011A0006574204465746563746564202D205472F1
:1011B000656174696E6720617320486172642052B2
:1011C0006573657400207F010100000000000000CD
:1011D0000000005F5F07000000000707000707002E
:1011E00000227F7F227F7F2200242E2A7F2A3A102E
:1011F000004625130864523100367F495F766050FF
:1012000000000007070000000000001C3E634100D2
:10121000000041633E1C000000082A3E1C3E2A08D4
:10122000000008083E3E0808000080E06000000062
:1012300000000808080808080000006060000000BE
:101240000040201008040201001C3E6141433E1C86
:10125000000040427F7F404000627379595D4F46F5
:10126000002061494D4F7B3100181C16137F7F1001
:101270000027674545457D38003C7E4B494979301C
:1012800000030371790D070300364F4D595976302D
:1012900000064F4949693F1E000000363600000035
:1012A00000004076360000000000081C3663410054
:1012B000001414141414141400004163361C0800A4
:1012C00000060753535B0F06003E415D555D511EFE
:1012D000007C7E1311137E7C007F7F4949497F3655
:1012E000001C3E6341416322007F7F4141633E1CFD
:1012F000007F7F4949494941007F7F090909090168
:10130000001C3E6341497979007F7F0808087F7F90
:10131000000041417F7F41410020604040407F3FCD
:10132000007F7F183C76634100007F7F4040404053
:10133000007F7F0E1C0E7F7F007F7F0E1C387F7F1B
:10134000003E7F4141417F3E007F7F1111111F0E02
:10135000003E7F4151713F5E007F7F1131796F4EBA
:1013600000266F49494B7A30000001017F7F01015F
:10137000003F7F4040407F3F000F1F3870381F0FF5
:10138000007F7F381C387F7F0063773E1C3E776389
:101390000000070F78780F07006171795D4F4743B0
:1013A0000000007F7F41410000010204081020403E
:1013B000000041417F7F00000000020301030200A2
:1013C000008080808080808000000000010200009A
:1013D0000020745454547C78003F7F4444447C384B
:1013E00000387C444444444400387C4444447F7F77
:1013F00000387C5454545C18000004047E7F0505BA
:101400000018BCA4A4A4FC7C007F7F0404047C78A6
:10141000000040447D7D40400000808084FD7D00D0
:10142000007F7F18387C6C44000040417F7F404043
:10143000007C047C7C047C78007C7C0404047C7844
:1014400000387C4444447C3800FCFC2424243C18B0
:1014500000183C242424FCFC00007C7C08040404C8
:1014600000485C5454547420000004047F7F04043A
:10147000003C7C4040407C7C00001C3C60603C1C8C
:10148000003C407C7C407C7C006C6C3838386C6C58
:10149000001CBCA0A0A0FC7C004464747C5C4C4498
:1014A000000000083E774100000000007F7F000040
:1014B000000041773E0800000008040C1C181008CA
:1014C00000006060006060000000D95C23681124A7
:1014D0001FBECFEFD1E2DEBFCDBF00E00CBF14E0F6
:1014E000A0E0B2E0ECE6F1EE00E00BBF02C0079036
:1014F0000D92A430B107D9F72CE1A4E0B4E001C00B
:101500001D92AF35B207E1F71AE0C6E6DAE000E077
:1015100006C021970109802FFE010E94596FC53630
:10152000D10780E00807A9F70E94BA5D0C94A47067
:101530000C94000080E008951F93CF93DF9300D0B8
:101540001F921F92CDB7DEB71C8221E02B839A83B6
:101550008983E091131CF091141C11891D82A091C4
:10156000131CB091141CE091171CF091181C9E01E3
:101570002F5F3F4F50964C916FE083E19CE11995AE
:101580008D818F5F8D83811750F30F900F900F9097
:101590000F900F90DF91CF911F910895CF93DF931C
:1015A00000D000D01F921F92CDB7DEB7CE010196BA
:1015B00028E0FC0111922A95E9F70E949C0A2896DE
:1015C0000FB6F894DEBF0FBECDBFDF91CF91089567
:1015D000CF93DF9300D01F921F92CDB7DEB76C83FD
:1015E0004D8341E04B833A832983DC011496ED91CE
:1015F000FC919E012F5F3F4F6FE019950F900F9068
:101600000F900F900F90DF91CF910895662329F0EE
:101610006A3019F0862F90E008958FEF9FEF0895BC
:101620009B01DC011896ED91FC9141E067E1199472
:101630000895AF92BF92CF92DF92EF92FF920F93F5
:101640001F93CF93DF936C017B018B01040F151F58
:10165000EB015E01AE18BF08C017D10759F06991C0
:10166000D601ED91FC910190F081E02DC601199514
:10167000892B79F7C501DF91CF911F910F91FF90D1
:10168000EF90DF90CF90BF90AF900895FC01448120
:101690005581608171818CEE98E10C94190BFC01ED
:1016A000538D448D252F30E0842F90E0821B930BC7
:1016B000541710F0CF96089501970895FC01918D6D
:1016C000828D981761F0A28DAE0FBF2FB11D5D9670
:1016D0008C91928D9F5F9F73928F90E008958FEF12
:1016E0009FEF0895FC01918D828D981731F0828DC6
:1016F000E80FF11D858D90E008958FEF9FEF08951D
:10170000FC01918D228D892F90E0805C9F4F821B80
:1017100091098F73992708958CEE98E10E94800BB0
:1017200021E0892B09F420E0822F0895FC01A48D8B
:10173000A80FB92FB11DA35ABF4F2C91848D90E0F3
:1017400001968F739927848FA689B7892C93A089D6
:10175000B1898C91837080648C93938D848D981360
:1017600006C00288F389E02D80818F7D80830895F3
:10177000EF92FF920F931F93CF93DF93EC0181E0E1
:10178000888F9B8D8C8D98131AC0E889F989808188
:1017900085FF15C09FB7F894EE89FF896083E889BB
:1017A000F98980818370806480839FBF81E090E0AD
:1017B000DF91CF911F910F91FF90EF900895F62E3A
:1017C0000B8D10E00F5F1F4F0F731127E02E8C8DD4
:1017D0008E110CC00FB607FCFACFE889F989808119
:1017E00085FFF5CFCE010E94960BF1CFEB8DEC0F6C
:1017F000FD2FF11DE35AFF4FF0829FB7F8940B8F36
:10180000EA89FB8980818062CFCF0F931F93CF93AA
:10181000DF938C01D0E0C0E0F801EC0FFD1F649174
:10182000662341F08CEE98E10E94B80B892B11F0F1
:101830002196F2CFCE01DF91CF911F910F910895A4
:10184000CF93DF93EC01888D8823B9F0AA89BB89F7
:10185000E889F9898C9185FD03C0808186FD0DC0E2
:101860000FB607FCF7CF8C9185FFF2CF808185FF03
:10187000EDCFCE010E94960BE9CFDF91CF91089575
:1018800080E090E0892B29F00E948C0B81110E944E
:10189000000080E090E0892B49F080E090E0892B07
:1018A00029F00E94000081110E94000080E090E079
:1018B000892B49F080E090E0892B29F00E940000FC
:1018C00081110E94000080E090E0892B49F080E0C7
:1018D00090E0892B29F00E94000081110C940000F7
:1018E00008958150823108F05AC0E82FF0E088272F
:1018F000E358F34F8F4F0C94596F9D0CA10C8F0C34
:10190000950C990CCF0CA40CAA0CAE0CB40CB80C12
:10191000BC0CC20CC60CCF0CCA0CD00CD40C8091E1
:1019200080008F77809380000895809180008F7D64
:10193000F9CF80918000877FF5CF84B58F7784BD04
:10194000089584B58F7DFBCF8091B0008F77809311
:10195000B00008958091B0008F7DF9CF8091900004
:101960008F77809390000895809190008F7DF9CFBC
:1019700080919000877FF5CF8091A0008F77809332
:10198000A00008958091A0008F7DF9CF8091A000E4
:10199000877FF5CF809120018F7780932001089574
:1019A000809120018F7DF9CF80912001877FF5CF35
:1019B000CF93DF93282F30E0F901E850F14F849165
:1019C000F901EE54F14FD491F901E459F14FC4916A
:1019D000CC23A1F081110E94710CEC2FF0E0EE0FEE
:1019E000FF1FEE5AF14FA591B491EC91ED2381E0E8
:1019F00090E009F480E0DF91CF91089580E090E0DD
:101A0000FACF1F93CF93DF93282F30E0F901E850EE
:101A1000F14F8491F901EE54F14FD491F901E45959
:101A2000F14FC491CC23A9F0162F81110E94710CA3
:101A3000EC2FF0E0EE0FFF1FE85CF14FA591B491A1
:101A40008FB7F894EC91111108C0D095DE23DC9388
:101A50008FBFDF91CF911F910895DE2BF8CFCF93E9
:101A6000DF9390E0FC01EE54F14F24918459914FA3
:101A7000FC0184918823D1F090E0880F991FFC012C
:101A8000E25EF14FA591B491FC01E85CF14FC59184
:101A9000D491623071F49FB7F8943C91822F809575
:101AA00083238C93E8812E2B28839FBFDF91CF91D6
:101AB00008958FB7F894EC912E2B2C938FBFF6CF0F
:101AC0003FB7F8948091950890919608A091970857
:101AD000B091980826B5A89B05C02F3F19F0019634
:101AE000A11DB11D3FBFBA2FA92F982F8827BC0178
:101AF000CD01620F711D811D911D42E0660F771FA0
:101B0000881F991F4A95D1F708958F929F92AF929F
:101B1000BF92CF92DF92EF92FF926B017C010E9405
:101B2000600D4B015C01C114D104E104F104B9F072
:101B30000E94600D681979098A099B09683E734003
:101B40008105910580F321E0C21AD108E108F1086E
:101B500088EE880E83E0981EA11CB11CE4CFFF9094
:101B6000EF90DF90CF90BF90AF909F908F900895AF
:101B70002FB7F89460919108709192088091930822
:101B8000909194082FBF0895089520914408260F3E
:101B90003327331F21323105ECF420916A08FC0110
:101BA00090E080E0243069F082E00895A09144083C
:101BB0002191AC014E5D574FA40FB52FB11D2C9351
:101BC0000196861798F380914408680F6093440843
:101BD00080E0089581E0089510926A0881E0809382
:101BE0006C0810926B0861E084E10E94010D61E0D5
:101BF00085E10E94010DE9EBF0E080818E7F80831A
:101C000080818D7F808388E48093B80085E4809311
:101C1000BC000895CF93DF9391E09093210888232F
:101C2000B9F0C091B800D091BA008091BC008A7B15
:101C30008093BC0060E084E10E94010D60E085E1DA
:101C40000E94010D0E94EC0DD093BA00C093B80021
:101C5000DF91CF910895089508950895E0911908AE
:101C600080911808E81730F4F0E0E850F84F8081D0
:101C700090E008958FEF9FEF08959091190880915B
:101C800018082FEF3FEF981748F4E92FF0E0E850DD
:101C9000F84F208130E09F5F90931908C9010895A3
:101CA0008091180890911908891B990B0895CF927B
:101CB000DF92EF92FF920F931F93CF93DF937C01FC
:101CC000CB018A012091F707222389F0EB016B01F8
:101CD000C40ED51ECC15DD0569F06991D701ED91D3
:101CE000FC910190F081E02DC7011995F3CF642F8D
:101CF0000E94C50DC801DF91CF911F910F91FF90F8
:101D0000EF90DF90CF900895CF93DF931F92CDB7E0
:101D1000DEB769832091F7072223F9F020911A0892
:101D2000203258F021E030E0FC013383228390E040
:101D300080E00F90DF91CF91089580911B08E82FEC
:101D4000F0E0E952F84F998190838F5F80931B08F0
:101D500080931A0881E090E0ECCF61E0CE0101961B
:101D60000E94C50DF7CFDC011A96ED91FC9130E091
:101D700020E01994DC011696ED91FC9130E020E012
:101D800040E069E11994DC011696ED91FC9130E098
:101D900020E040E068E119949A01DC011696ED918B
:101DA000FC91462F67E11994EF92FF920F931F93D6
:101DB000CF93DF931F92CDB7DEB77C018B01D801A3
:101DC0006C91673129F150F46531A0F40F90DF91E7
:101DD000CF911F910F91FF90EF9008956A3118F104
:101DE0006E3FA1F7F8014181498369E2C7010E9472
:101DF000B30E0BC0F80141814983D7011696ED91CE
:101E0000FC9130E020E0C70119950E5F1F4FD7CF3E
:101E1000F80181818983AE014F5F5F4F61E0C701A7
:101E20000E94CC0EF2CF0F5F1F4FD7011696ED9197
:101E3000FC9130E020E040E0C7011995C0CF462F6B
:101E4000DC011696ED91FC9130E020E066E11994FA
:101E5000462FDC011696ED91FC9130E020E065E123
:101E60001994EF92FF920F931F93CF93DF93EC019E
:101E7000042F7901693069F481ED92E099838883B8
:101E80001C8A81E0DF91CF911F910F91FF90EF901D
:101E900008956D3009F475C038F46A3091F16B30F3
:101EA00009F468C080E0EECF6E3009F47DC06F3079
:101EB000C9F70E94C30EF7011381110F110F110F03
:101EC0006C89160F612F62956F706061CE010E9460
:101ED000280F612F6F70CE010E94280FF7016481D7
:101EE000606BCE010E94280FF70140815181628111
:101EF000660F660F660FCE010E94CC0E0150A1F74F
:101F00005DC0EA85FB8530E020E040E068E219959D
:101F1000EE81FF8130E020E040E064E1CE011995E0
:101F200041E06BE4CE010E94B30EE881F981448167
:101F300069E2CE010E94B30E40E06BE4CE010E9444
:101F4000B30EE881F981448169E2CE010E94B30EAB
:101F500041E06BE4CE010E94B30EE881F981458136
:101F600069E2CE010E94B30E6CE972E0CE010E94DC
:101F7000D40E87CF67E972E04423C1F362E972E0CF
:101F8000F5CF411109C06BE872E00E94D40EE881E0
:101F9000F98182898C8B75CF64E872E00E94D40E3F
:101FA000E881F9818389F6CF0E94C30E61E8CE01F2
:101FB0000E94280F602FCE010E941F0FCE010E94A9
:101FC000BA0E5FCFDC011896ED91FC9130E020E075
:101FD00040E069E11994DC011896ED91FC9130E044
:101FE00020E040E068E11994CF93DF931F92CDB7D2
:101FF000DEB76983BE016F5F7F4F0E94100B0F90A9
:10200000DF91CF910895EF92FF921F93CF93DF93CB
:10201000EC01162F7A010E94EB0F60E4CE010E94C2
:10202000F40FE885F9859701412F67E1CE011995F5
:10203000CE01DF91CF911F91FF90EF900C94E20FB2
:10204000EF92FF921F93CF93DF93EC01142F79014E
:10205000663181F138F4643109F44BC0653179F0AF
:1020600080E022C06831C9F150F16931C9F780912F
:10207000D607882391F1CE010E94E20F2EC08091F5
:10208000D607882319F0CE010E94E20FCE010E94EC
:10209000EB0F60E0CE010E94F40F612FCE010E9491
:1020A000F40F81E08093D607DF91CF911F91FF90CD
:1020B000EF900895642F0E94F40F81E0F5CF809196
:1020C000D607882319F0CE010E94E20FA70119312B
:1020D00038F4612FCE010E9403101092D607EDCF85
:1020E00068E1CE010E940310185188E1E80EF11C4E
:1020F000EDCF8E898F3F11F488E78E8BE885F985C7
:102100009701412F64E1CE01DF91CF911F91FF90A4
:10211000EF90199490E09C0144E0220F331F4A9500
:10212000E1F7282B392B2F703F70C901880F991FB9
:10213000880F991F282B392B23733373C901880FFC
:10214000991F822B932B857595759C01220F331F48
:10215000822B932B0895CF93DF93EC01A889B98943
:10216000FD01349131969491319684911396FD013D
:10217000A4916317A8F1961798F1631B770B8A9FB8
:10218000E02D1124E69FC001E79F900D1124280F38
:10219000392F311D83E0220F331F8A95E1F7C901E2
:1021A0000496DA01245F3F4FE889F989E80FF91FA7
:1021B000E491ED93019682179307B1F78D898823F7
:1021C00061F0FA019A01285F3F4F8191DF01119779
:1021D00080958C932E173F07C1F7DF91CF9108951B
:1021E000FA01CA0108961192E817F907E1F7E6CF5C
:1021F0002F923F924F925F926F927F928F929F9217
:10220000AF92BF92CF92DF92EF92FF920F931F9304
:10221000CF93DF93CDB7DEB7A4970FB6F894DEBFA8
:102220000FBECDBF082F562EE091231CF091241C29
:10223000329624912E8F10922B1C4B8F5C8FE12CA9
:1022400081E0860F89A3FE017996FA8FE98FEB8DE5
:10225000FC8D6191FC8FEB8FE091151CF091161CA9
:1022600083E19CE119958F3F980709F46DC08E3F7B
:102270002FEF920761F38F8F8091231C9091241C84
:10228000FC01329624910396FC018491402E420E6B
:10229000880F850D88A319A181E0800F481608F4E6
:1022A0004EC02D8F712C22242A94210E672CF02EE3
:1022B000262DAE014F5E5F4F6F8D83E19CE10E9442
:1022C000AB10CE0141964C015E0199E0A90EB11C04
:1022D000FE0131966F013A2CBAA2EBA3DCA2F40105
:1022E00081914F010E948A10F50191935F01F601DF
:1022F00081936F01898D9A8D8816990681F72BA19C
:102300003CA1422D6F2D83E19CE10E94E80A232D20
:102310003AA1412F6F2D83E19CE10E94E80A63946A
:10232000F394F41428F282E0810F9D8D790E1F5FE3
:10233000E8A11E1738F0FE8D0F0FE39488CFF1E06F
:10234000FD8FB0CF182FAFCF8E2DA4960FB6F89477
:10235000DEBF0FBECDBFDF91CF911F910F91FF90D8
:10236000EF90DF90CF90BF90AF909F908F907F9035
:102370006F905F904F903F902F90089526E03BE044
:102380003093161C2093151C0C94F810CF92DF92FA
:10239000EF92FF920F931F93CF93DF93EC01962F51
:1023A000683109F44BC0B901993130F49431C9F066
:1023B000973189F080E006C0993109F461C090320C
:1023C000C9F781E0DF91CF911F910F91FF90EF90BE
:1023D000DF90CF90089550E089E899E10E94570E70
:1023E000F0CF8C859D85AE85BF85892B8A2B8B2B65
:1023F00071F4E881F981A585B0E020EA36E841E092
:1024000050E00E94856D6C877D878E879F87109234
:1024100019081092180810921B0810921A080E94AE
:10242000EC0D8BE29EE090934308809342088CE28F
:102430009EE09093470880934608C3CF2C853D8546
:102440004E855F8560E074E284EF90E00E94906DBD
:1024500020513109410951095695479537952795DE
:102460002093B8008E8990E09595879591E09093A0
:10247000F7078093D50710921B0810921A08A1CF76
:10248000D0911A08D13208F093C0C091D5070E94AC
:10249000600D6B017C0180916A08811164C082E04B
:1024A00080936A0881E080936C088FEF80936908BD
:1024B00010928E08D0938D08A7EDB7E0EDE6F8E016
:1024C00080E0D8137CC010928F0880918F08CC0FC9
:1024D000C82BC0938F0880916B08813009F073C0BE
:1024E00010926B080E94600D6B017C0180918F0837
:1024F0008093BB0080911D0890911E08A0911F0839
:10250000B0912008892B8A2B8B2B99F00E94600DAB
:1025100000911D0810911E0820911F08309120087D
:102520006C197D098E099F090617170728073907B7
:10253000D8F18091BC0083FDD9CF85EC8093BC009D
:102540000E94600D6B017C0180916A088230E9F184
:10255000809169088F3F61F180916908803241F173
:102560008091690825C080911D0890911E08A09156
:102570001F08B0912008892B8A2B8B2B09F48BCF55
:102580000E94600D00911D0810911E0820911F08E7
:10259000309120086C197D098E099F0906171707CD
:1025A0002807390708F077CF80911C080E940A0E8F
:1025B00010921B0810921A081092F70702CF9D91F3
:1025C00091938F5F7ECF85EEB9CF80911D0890915A
:1025D0001E08A0911F08B0912008892B8A2B8B2BF5
:1025E00009F4B2CF0E94600D00911D0810911E08E1
:1025F00020911F08309120086C197D098E099F09D0
:10260000061717072807390708F09ECFCDCF0F937D
:102610001F93CF93DF938C01C62F642FCC32E8F445
:10262000CA3208F041C0C83271F1C93209F442C05F
:1026300080E0C034D0F1CF73F801EC0FF11D868D2E
:102640008F3F91F1C031E0F00E94D80C21E0892B3E
:1026500009F420E0F801218F27C0CD3289F140F341
:1026600084EB8C0F823020F7CF73C00FD12FD11D98
:102670008E8D411133C061E00E942F0D60E08E8D80
:102680000E94010D11C0025E1F4FD0E0F801819140
:102690008F018F3F31F061E0D03108F062E00E949D
:1026A0002F0DDF5FD63191F781E0DF91CF911F9140
:1026B0000F91089570E090E080E00E94850DF4CFC6
:1026C00085E090E0433010F082E090E0880F991FA1
:1026D000880F991F05970197F1F7E6CF62E00E94F6
:1026E0002F0DE2CF4F925F926F927F928F929F92C7
:1026F000AF92BF92CF92DF92EF92FF920F931F9310
:10270000CF93DF9300D000D01F921F92CDB7DEB7DA
:10271000DC015496ED91FC915597D996DC90D997B0
:10272000AF014D5F5F4F6A3009F5FA0144914D0DDD
:10273000D9964C93D997D8961C9281E090E0289630
:102740000FB6F894DEBF0FBECDBFDF91CF911F91C2
:102750000F91FF90EF90DF90CF90BF90AF909F9040
:102760008F907F906F905F904F9008953296B490C5
:10277000D896CC90D8977C0184E0E80EF11C149197
:10278000FA0104917C2C710E0D0D81E08C0D7816F0
:1027900008F411E0A62E4D01512C452C6C2C242D53
:1027A000AE014F5F5F4F6A2DC7010E94AB109E01C3
:1027B0002F5F3F4F4D2D662DC7010E94E80A4394BD
:1027C0006394671460F3D394510ED01630F3F40180
:1027D00080ADB80EB0AEB1CFCF93DF93EC01E981FD
:1027E000FA81908181819CBD8DBDE981FA8160E093
:1027F00082810E94010D81E08B83DF91CF9108954A
:102800008EBD0DB407FEFDCF08958FEF8EBD0DB4C4
:1028100007FEFDCF8EB508950F931F93CF93DF93DF
:10282000EC010E94B80D8B010E9405148F3F69F0E6
:102830000E94B80D601B710BC617D707A8F780E080
:10284000DF91CF911F910F91089581E0F9CFCF9340
:10285000DF93FC012381222361F0EC010180F281EE
:10286000E02D61E082810E94010D8FEF0E94001433
:102870001B82DF91CF910895EF92FF920F931F93E8
:10288000CF93DF93EC017B010E94B80D8B010E9476
:1028900005148C838F3FA1F40E94B80D601B710B4F
:1028A000693E7340A0F385E58883CE010E9427141A
:1028B00080E0DF91CF911F910F91FF90EF900895ED
:1028C0008E3F11F080E5F0CF8FEF8EBDF701D7017D
:1028D000A150BE4F9FEF0DB407FEFDCF8EB59EBD3C
:1028E0008193AE17BF07B9F70DB407FEFDCF8EB5C4
:1028F0008C931C820E9405140E94051481E0D9CF9C
:102900000F931F93CF93DF938C01862FEA010E94D0
:10291000001488818EBD8981FE013296DE5F0DB480
:1029200007FEFDCF8EBDEC17FD0711F08191F7CFAB
:102930000DB407FEFDCF8FEF0E9400148FEF0E94B1
:1029400000140E940514F80184838F71853059F0BA
:1029500087E58083C8010E94271480E0DF91CF9132
:102960001F910F91089581E0F9CFDF92EF92FF92CE
:102970000F931F93CF93DF938C01C62FD22FF32E8B
:10298000E42ED52EFC018381811103C0C8010E9471
:10299000EC13CC2321F08CE291E00E940C148C2FDC
:1029A00080640E9400148D2D0E9400148E2D0E94C0
:1029B00000148F2D0E9400148D2F0E94001487E8B0
:1029C000C11101C085E90E9400140E940514CBE0EA
:1029D0000E940514F801848387FF02C0C150C1F72B
:1029E000DF91CF911F910F91FF90EF90DF900895AD
:1029F0000F931F93CF93DF93EC0189018D81833077
:102A000039F089E0440F551F661F771F8A95D1F76B
:102A10009A01AB0168E1CE010E94B514882339F018
:102A200082E38883CE010E94271410E021C0A80110
:102A30006EEFCE010E9480148823A1F380ED97E011
:102A40000E940C14182F8AE5112359F320E030E07E
:102A5000A9016DE0CE010E94B514882311F089E22E
:102A6000E0CF0E9405148111FACFCE010E942714F5
:102A7000812FDF91CF911F910F9108950F931F9395
:102A8000CF93DF93EC0189018D81833039F089E0A8
:102A9000440F551F661F771F8A95D1F79A01AB0126
:102AA00061E1CE010E94B514882339F080E3888368
:102AB000CE010E94271410E00AC0B801CE010E9486
:102AC0003C14182F8823A1F3CE010E942714812FD4
:102AD000DF91CF911F910F910895EF92FF921F9375
:102AE000CF93DF93FC01208111E020FF14C0EC01A3
:102AF0007C01F7E0EF0EF11C4B815C816D817E81E2
:102B0000E981FA819701808191810E94F814182F40
:102B1000811108C010E0812FDF91CF911F91FF90AC
:102B2000EF900895888181FD04C088818E7F88831D
:102B3000F2CFE981FA814B815C816D817E81848550
:102B40009585A685B785480F591F6A1F7B1F97017A
:102B5000808191810E94F8148111E7CFDBCFCF9261
:102B6000DF92EF92FF921F93CF93DF93EC016A0104
:102B70007B01122F8B819C81AD81BE818C159D05BF
:102B8000AE05BF05B1F0CE010E946D1581110AC0DE
:102B900090E080E0DF91CF911F91FF90EF90DF9068
:102BA000CF90089512FF0CC01882CB82DC82ED8298
:102BB000FE8213708881182B1883CE010796EACF06
:102BC000E981FA819E01295F3F4FB701A60180810B
:102BD00091810E943E158111E7CFDACF8F929F92AB
:102BE000AF92BF92CF92DF92EF92FF920F931F931B
:102BF0001092BE1941E050E060E070E04093C119CE
:102C00005093C2196093C3197093C41929EB39E129
:102C10003093DB192093DA191092D9194FEF5FEF37
:102C2000BA014093DC195093DD196093DE1970935B
:102C3000DF19882309F450C020E040E050E0BA01D9
:102C400089ED99E10E94AF15009761F480E01F9132
:102C50000F91FF90EF90DF90CF90BF90AF909F903B
:102C60008F900895FC01E254FE4F20812F7771F779
:102C70008A539E4FFC01C080D180E280F380C11452
:102C8000D104E104F10411F320E0B701A60189EDBC
:102C900099E10E94AF15FC01892BC1F283859485CF
:102CA0008115924099F68089823081F686859785D4
:102CB000892B61F225852093BB198FEF820F8093BA
:102CC000BC1980E091E0291769F08F5F893041F4E9
:102CD00088E08093BD19BACFC12CD12C7601D4CF16
:102CE000990FF1CF8093BD194689578970E060E054
:102CF0004115510521F444A155A166A177A1409346
:102D0000C5195093C6196093C7197093C8192685C1
:102D1000378546015701820E931EA11CB11C80927B
:102D2000CD199092CE19A092CF19B092D0192189C5
:102D300032893093C0192093BF19440F551F661F65
:102D4000771F480D591D6A1D7B1D4093D51950935F
:102D5000D6196093D7197093D81921893289A5E0C3
:102D6000220F331FAA95E1F721503E4F232F33271F
:102D70002695420F531F611D711D4093C919509331
:102D8000CA196093CB197093CC190389148930E068
:102D900020E00115110521F400A111A122A133A108
:102DA000C41AD50AE60AF70AC00ED11EE21EF31EA7
:102DB00004C0F694E794D794C7948A95D2F7D701C4
:102DC000C6010196A11DB11D8093D1199093D2190E
:102DD000A093D319B093D41985EFC8168FE0D80605
:102DE000E104F10420F48CE08093BE192FCF80E140
:102DF00025EFC2162FEFD206E104F10468F084A596
:102E000095A5A6A5B7A58093D5199093D619A0939B
:102E1000D719B093D81980E28093BE1981E017CFFB
:102E20008F929F92AF92BF92CF92DF92EF92FF92DA
:102E30000F931F93423051056105710560F480E0E6
:102E40001F910F91FF90EF90DF90CF90BF90AF90C8
:102E50009F908F900895FC01C08CD18CE28CF38CF4
:102E6000C416D506E606F70650F3480159016A0173
:102E70007B018581803241F584899589A689B7894E
:102E800017E076956795579547951A95D1F7480FAE
:102E9000591F6A1F7B1F23E0CF0180960E94AF1548
:102EA000009769F2E894C7F8DD24EE24FF24CC0CE7
:102EB000DD1CCC0CDD1C8C0D9D1DFC0180829182E3
:102EC000A282B38281E0BCCF803109F0B8CF4489BF
:102ED0005589668977894D0D511D611D711D23E04E
:102EE000CF0180960E94AF15009709F4A8CFDD248A
:102EF000EE24FF24CC0CDD1CC80ED91EF601118374
:102F00000083E0CFCF92DF92EF92FF920F931F9357
:102F1000CF93DF93423051056105710550F48FEF77
:102F2000DF91CF911F910F91FF90EF90DF90CF90A5
:102F30000895FC01C08CD18CE28CF38CC416D506AC
:102F4000E606F70660F389016A017B01EC018581E1
:102F50008032B9F584899589A689B789E7E07695A5
:102F6000679557954795EA95D1F7480F591F6A1FFE
:102F70007B1F22E0CE0180960E94AF15009779F268
:102F8000E894C7F8DD24EE24FF24CC0CDD1CCC0C27
:102F9000DD1C8C0D9D1DFC0180819181A281B3817E
:102FA000BF70488D598D6A8D7B8D481759076A0708
:102FB0007B0738F1F80180839183A283B38381E09A
:102FC000AFCF803109F0ABCF4489558966897789C5
:102FD0004D0D511D611D711D22E0CF0180960E9493
:102FE000AF15009709F49BCFDD24EE24FF24CC0C11
:102FF000DD1CC80ED91EF60180819181B0E0A0E0F1
:10300000D0CF80E08DCF9F92AF92BF92CF92DF92D0
:10301000EF92FF920F931F93CF93DF9300D01F92F5
:10302000CDB7DEB75C016A017B0119821A821B826F
:103030001C829E012F5F3F4FB701A601C5010E9470
:103040008217982E87FD34C000E010E09801B70188
:10305000A601C5010E941017882351F1F501408592
:103060005185628573854C155D056E057F0550F0B1
:10307000F1E0CF1AD108E108F108F501C086D18648
:10308000E286F386C980DA80EB80FC809110D1CF94
:103090000F900F900F900F90DF91CF911F910F9194
:1030A000FF90EF90DF90CF90BF90AF909F900895EA
:1030B00080E0EECFBF92CF92DF92EF92FF920F931C
:1030C0001F93CF93DF93DB01FC019F012F5F3F4FE5
:1030D0008081803209F49EC01496FC93EE9313977E
:1030E0009F0189010E1B1F0B722F632FE90189912C
:1030F0009E01882379F08F3209F08EC0CF01800FB6
:10310000911F782F692FEC012991CE012032C9F34C
:103110002F32B9F3EA0178836983E801CE0FDF1F0C
:103120008E010E1B1F0BCE17DF0709F495C08A9185
:103130008E32B1F38032A1F30F3F110511F00CF084
:103140006DC012961C930E931197ED012696CD013A
:10315000419620E229938C179D07E1F7EF019E012C
:103160002E1B3F0B89918E32D1F38032C1F381E067
:103170002115310509F080E0A80141505109EF0106
:10318000C00FD11F4F3F540709F069C0F12C67E011
:10319000B12C70E0D8E0ED2E201731070CF0ACC058
:1031A0006F01C20ED31EE6019881903209F483C0EC
:1031B0009E3221F42417350709F07DC0D92F9232B1
:1031C000E1F09C37D1F0C6EDDC2ED90EC5E0CD156F
:1031D00010F09D3291F4C6ECDC2ED90EC5E0CD1571
:1031E00060F4C5EADC2ED90EC2E0CD1530F4CFED87
:1031F000DC2ED90ECDE5CD15C8F52417350709F01D
:1032000076C06A3009F477C06AE098E0B92EC0E170
:10321000EC2E52C0F90159CF8C3559F480E0DF9182
:10322000CF911F910F91FF90EF90DF90CF90BF90C3
:103230000895982F977F923289F38A3379F3982FE4
:103240009F7B9C3359F392EC980F923038F3805265
:103250008F3508F446CFE2CF10E000E072CF9A91AC
:103260009E3209F493CF415051098CCF2417350772
:1032700041F26B15F0F1CFE9DC2ED90EC9E1CD1585
:1032800008F19052FE28DD24D394DB0CED01CB0D28
:10329000D11D9E83D6E0DD1518F01596DC921597AA
:1032A000BD2C0AC04217530734F19A016AE0D8E0F6
:1032B000BD2E80E1E82E80E02F5F3F4F6DCF80E094
:1032C0009FE5DFE5D154DA31F0F67E29DCCF81E0ED
:1032D0008C9315966C911597A60FB11D8EE71696D7
:1032E0008C93169781E317968C9381E098CF6B159A
:1032F00030F76A30B9F680E016969C9116979032B6
:1033000009F48CCF882319F37F2111F0D2E0FD2E30
:10331000FC9285CFFC019C01255F3F4F80E080FB44
:10332000879587F99191890F2E173F07C1F7089567
:103330004F925F926F927F928F929F92AF92BF92C5
:10334000CF92DF92EF92FF920F931F93CF93DF9371
:10335000EC014A015B014C845D846E847F84A8810A
:10336000AA2309F486C0488959896A897B89481546
:1033700059056A057B0569F081149104A104B10423
:1033800051F41C861D861E861F86888A998AAA8A01
:10339000BB8A81E073C0A3FF59C0088D198D2A8DA7
:1033A0003B8D081519052A053B0508F462C0EE811E
:1033B000FF81848190E009968A019B0101501109E7
:1033C00021093109082E04C03695279517950795D0
:1033D0000A94D2F775016401B1E0CB1AD108E10873
:1033E000F10804C0F694E794D794C7948A95D2F76D
:1033F000C016D106E206F30628F0452B462B472BD4
:1034000009F052C0A6FF4BC0848D958DA68DB78D57
:103410008C879D87AE87BF878E01045F1F4FC114C5
:10342000D104E104F10409F4B0CF4C855D856E85CB
:103430007F8598018E819F810E94821791E0C91A31
:10344000D108E108F108181654F313C0A5FFAFCF57
:10345000EE81FF818681978125E0880F991F2A954B
:10346000E1F7B0E0A0E088159905AA05BB0508F0D2
:103470008CCF4C865D866E867F8680E0DF91CF9113
:103480001F910F91FF90EF90DF90CF90BF90AF9082
:103490009F908F907F906F905F904F9008958C8D4C
:1034A0009D8DAE8DBF8DB4CFC01AD10AE20AF30A4A
:1034B000B3CFCF93DF93EC01262F4C895D896E89C2
:1034C0007F898E819F8180960E94AF15009771F051
:1034D0002C813D812F70332745E0220F331F4A9501
:1034E000E1F7820F931FDF91CF91089590E080E084
:1034F000FACF0F931F93CF93DF93EC01909199191B
:10350000911106C080E0DF91CF911F910F91089536
:10351000907629F08FE28883198281E0F4CF60E011
:1035200089E999E10E94591ADC01009759F3AC012D
:1035300038E070E090E06EE2FA018191AF018032F4
:10354000F1F0983039F49E01270F311DF9016083A5
:103550007F5F30E18A0101501109F80120818FEB72
:10356000820F8A3130F41C968C911C97832309F0CA
:10357000205E8E01070F111DF80120837F5F9F5F82
:103580009B30D1F6FE01E70FF11D1082C6CF3F92AE
:103590004F925F926F927F928F929F92AF92BF9263
:1035A000CF92DF92EF92FF920F931F93CF93DF930F
:1035B00000D01F92CDB7DEB74C01FC018281846040
:1035C0008283A680B7804484558466847784F5011D
:1035D000C084D184E284F384C414D504E604F704DF
:1035E00010F011E003C07301620110E0FFEFCF1A89
:1035F000DF0AEF0AFF0AF501808D918DA28DB38D50
:103600008C159D05AE05BF0538F4111131C0C0847D
:10361000D184E284F384E5CF4C145D046E047F040E
:1036200039F19E012F5F3F4FB701A601C5010E94EE
:10363000821787FD1DC08823C9F289819A81AB81D9
:10364000BC81892B8A2B8B2B89F6112329F0F5015C
:10365000C086D186E286F3860FEF1FEF2FEF3FE0A3
:10366000B701A601C5010E941017382E811118C09C
:10367000312C832D0F900F900F900F90DF91CF91F1
:103680001F910F91FF90EF90DF90CF90BF90AF9080
:103690009F908F907F906F905F904F903F90089594
:1036A000411451046104710431F4F401C486D586D7
:1036B000E686F786DECF97018601B301A201C50138
:1036C0000E9410178111F1CFD3CF40E050E0BA0132
:1036D0000C94981980960C946D15CF93DF93FC0190
:1036E0002081211104C081E0DF91CF910895EC0188
:1036F000828182FF27C061E0CF010E94591AFC013C
:10370000892B29F489818160898380E0EDCF8081D4
:10371000853EC1F3888183FF08C0888D998DAA8D6D
:10372000BB8D848F958FA68FB78F8C8D9D8D938F3A
:10373000828F8C8D9D8DAE8DBF8DB58BA48B8A8134
:103740008B7F8A838E819F810E946A1B8823D1F29E
:10375000CACFCF93DF93EC010E946D1B1882DF91DB
:10376000CF910895462F4450550B96E0949FF00159
:10377000959FF00D1124E354F84F60586083118237
:1037800024E0228391E093838483282792279583E2
:1037900008954F925F926F927F929F92AF92BF92E5
:1037A000CF92DF92EF92FF920F931F93CF93DF930D
:1037B0000E94B80D6B017C014090300450903104A0
:1037C000609032047090330483E20E94D80C982EEB
:1037D00087E20E94D80CA82E81E20E94D80CB82E55
:1037E00089E20E94D80C082F8BE20E94D80C182F77
:1037F00085E20E94D80CD82F911044C062E370E09B
:1038000080E090E00E94850D83E20E94D80C892B15
:1038100009F015C180912F04811111C181E08093BD
:103820002F04C12CD12C760183E20E94D80C892B65
:1038300051F480EAC81686E8D80681E0E806F1046B
:10384000D9F48BE509C081E090EAC91696E8D9065B
:1038500091E0E906F104A9F3DF91CF911F910F9157
:10386000FF90EF90DF90CF90BF90AF909F907F90B0
:103870006F905F904F9008958FEFC81AD80AE80AAA
:10388000F80AD2CFC418D508E608F708CA2DA11047
:103890001EC062E370E080E090E00E94850D87E248
:1038A0000E94D80C892B89F494EBC916D104E10449
:1038B000F10458F00E94B80D609330047093310405
:1038C0008093320490933304C2E08C2FC5CFB110A3
:1038D00031C062E370E080E090E00E94850D81E2FB
:1038E0000E94D80C892BA1F080E091E09912B4CF0E
:1038F000A912B2CFB912B0CF013009F0ADCF11305B
:1039000009F0AACFD13009F0A7CF10922F04A4CF8D
:1039100084EBC816D104E104F10430F30E94B80D21
:103920006093300470933104809332049093330495
:1039300083E0DBCF011134C062E370E080E090E00F
:103940000E94850D89E20E94D80C892B69F680912E
:103950002F048111C9CF81E080932F04C12CD12C79
:10396000760189E20E94D80C892B51F490EAC9169D
:1039700096E8D90691E0E906F10461F48EE5B5CF49
:1039800080EAC81686E8D80681E0E806F104B1F3BB
:1039900084E0ABCF9FEFC91AD90AE90AF90AE1CF4F
:1039A000111136C062E370E080E090E00E94850D66
:1039B0008BE20E94D80C892B09F096CF80912F04BE
:1039C000811192CF81E080932F04C12CD12C7601FC
:1039D0008BE20E94D80C892B51F480EAC81686E845
:1039E000D80681E0E806F10469F48FE57ECF85E032
:1039F00090EAC91696E8D90691E0E906F10409F0C3
:103A000074CFF3CF8FEFC81AD80AE80AF80AE0CFCC
:103A100081116ACF62E370E080E090E00E94850D42
:103A200085E20E94D80C892B09F05ECF80912F048B
:103A300081115ACF81E080932F0486E056CF80E039
:103A40000BCF90E024E034E0829FB001839F700DA3
:103A5000929F700D112423E030E040E00497F901BB
:103A6000E60FF71FE157F740508145272F5F3F4F83
:103A7000233054E0350799F724E034E0829FF001C9
:103A8000839FF00D929FF00D1124EE55F34F40836C
:103A90000895DC0114964D915C91159730E020E07B
:103AA00090E080E02417350799F0ED91FC91119793
:103AB000309759F410922A04EAE2F4E060816F3200
:103AC00009F401962F5F3F4FEDCFE20FF31FF6CFC2
:103AD0002130310511F490E080E008958CB190E040
:103AE00080E06599FBCF853823E0920711F48CB113
:103AF00008950196F6CFCF92DF92EF92FF920F9347
:103B00001F93CF93DF936C01EB017B01E40EF51E55
:103B100010E000E0CE15DF0561F06991D601ED916E
:103B2000FC910190F081E02DC6011995080F191F35
:103B3000F1CFC801DF91CF911F910F91FF90EF90CE
:103B4000DF90CF90089504960C946D1B90E080E078
:103B50000895FC0101900020E9F73197AF01481B5F
:103B6000590BBC018CEE98E10C94190B89E293E09F
:103B70000C94A91DCF93DF930E94050CEC010E94C9
:103B8000B61D8C0F9D1FDF91CF9108950F931F934A
:103B900080913504811132C00E94B80D009111024C
:103BA000109112022091130230911402601B710BCC
:103BB000820B930B693C710581059105D0F08091D2
:103BC000E218811116C00E94B80D60931102709323
:103BD0001202809313029093140290E080E06499A3
:103BE00005C00196823127E29207C9F781E08093F0
:103BF000E21880E18CBB1F910F91089581EA98E053
:103C00000E94BA1D83E898E00E94BA1D81E080936B
:103C1000000210923504EDCFCF93DF930E94460B44
:103C2000EC010E94B61D8C0F9D1FDF91CF9108956E
:103C30008F929F92AF92BF920F931F93CF93DF9378
:103C4000CDB7DEB7A1970FB6F894DEBF0FBECDBFDC
:103C500019A2423008F44AE08E010F5D1F4F842EF6
:103C6000912CB12CA12CA50194010E94906DE62FFE
:103C7000B901CA01EA30F4F4E05DD801EE938D0198
:103C8000232B242B252B79F790E080E0109719F057
:103C9000CD010E94A91DA1960FB6F894DEBF0FBEFC
:103CA000CDBFDF91CF911F910F91BF90AF909F90AB
:103CB0008F900895E95CE1CF0C94181EAB01682F3A
:103CC00070E090E080E00C945C1ECF93DF930E9444
:103CD0005E1EEC010E94B61D8C0F9D1FDF91CF91DF
:103CE0000895CF93DF930E945C1EEC010E94B61DE5
:103CF0008C0F9D1FDF91CF910895CF92DF92EF92AD
:103D0000FF92CF93DF936C01990FEE08FF086A30A2
:103D10007105E1F44AE0F7FE1AC06DE28CEE98E11D
:103D20000E94B80BEC0166277727CB016C197D093F
:103D30008E099F094AE00E94181E8C0F9D1FDF917B
:103D4000CF91FF90EF90DF90CF900895462FC7015D
:103D5000B601DF91CF91FF90EF90DF90CF900C9460
:103D6000181ECF93DF936AE070E00E947D1EEC0185
:103D70000E94B61D8C0F9D1FDF91CF910895CF93A8
:103D8000DF93BC0190E080E04AE00E94181EEC0145
:103D90000E94B61D8C0F9D1FDF91CF910895CF9388
:103DA000DF930E94A91DEC010E94B61D8C0F9D1F80
:103DB000DF91CF910895FC01808181110FC080E2D5
:103DC000DF01982F1D929A95E9F777836683DB01CF
:103DD00015969C91903129F0903211F080E0089571
:103DE00080E4808381E082830895CF92DF92EF9216
:103DF000FF920F931F93CF93DF93FC0180E2DF01CB
:103E00001D928A95E9F7EB01AE81BF81B783A68346
:103E100055834483CC8CDD8CEE8CFF8CC086D186A0
:103E2000E286F3864F705527ED01A79695E0440F83
:103E3000551F9A95E1F7BE01640F751FEB018B8545
:103E400083FD16C0CD01840F951FEC018AA98771EF
:103E50008083EB019B85987111F4886080830383D4
:103E60002370213009F44AC030F0223009F444C0F4
:103E7000108280E038C081E08283828181FF03C0AC
:103E800080818171A9F793960D911D912D913C919F
:103E90009697048B158B268B378BA40FB51FDB965B
:103EA0004D915C91DC9770E060E0BA0155274427A2
:103EB000ED01CF5BDF4F0881198130E020E0402B1E
:103EC000512B622B732B448F558F668F778FAD5B91
:103ED000BF4F8D919D910D90BC91A02D808F918FA2
:103EE000A28FB38F81E0DF91CF911F910F91FF904F
:103EF000EF90DF90CF90089583E0BECF82E0BCCFFB
:103F0000AF92BF92CF92DF92EF92FF920F931F93E7
:103F1000CF93DF93EC01888185FF0DC010E0812FE6
:103F2000DF91CF911F910F91FF90EF90DF90CF9095
:103F3000BF90AF90089588899989AA89BB89811516
:103F40009E4FAF41B10550F7CE010E94C71A182FFE
:103F5000882321F3EE81FF81CC84DD84EE84FF840D
:103F600032E0C31AD108E108F108848104C0CC0C06
:103F7000DD1CEE1CFF1C8A95D2F780899189A289ED
:103F8000B389C80ED91EEA1EFB1E25E0B701A601A3
:103F9000CF0180960E94AF155C01892B09F4BECF3A
:103FA00080E092E0F5019C01119221503040E1F750
:103FB00001E0EE81FF818281081780F49501B7014D
:103FC000A601400F511D611D711D808191810E94CC
:103FD000F814882309F4A2CF0F5FEBCF90E0B0E094
:103FE000A0E029E0880F991FAA1FBB1F2A95D1F7CF
:103FF000488959896A897B89840F951FA61FB71F35
:10400000888B998BAA8BBB8B8ACF0F931F93CF93EF
:10401000DF934115510541F0FC0104811581011523
:10402000110539F4FB011082DF91CF911F910F919F
:104030000895415051094017510708F48A01EB01D6
:10404000FC0160817181A801CE010E947B70C00FCC
:10405000D11F1882E9CFCF93DF93FC0144815581B2
:1040600064177507C8F49B01EC0180819181415070
:10407000510955834483461B570B6F5F7F4F680F71
:10408000791F820F931F0E947B70E881F9818C81D8
:104090009D81E80FF91F1082DF91CF910895AF92B3
:1040A000BF92CF92DF92EF92FF920F931F93CF9325
:1040B000DF9320914D1C30914E1CFC0144815581B1
:1040C000E901C41BD50B4115510549F121153105F5
:1040D00031F12417350718F1C217D30710F0E901A1
:1040E00021975C01C090491CD0904A1CC6010FEF7B
:1040F0001FEF7601EC0EFD1EE816F90690F0F501B3
:10410000608171810E948A70009759F09C012C197E
:104110003D09C217D30708F089010196EDCF0FEFD3
:104120001FEFC801DF91CF911F910F91FF90EF908A
:10413000DF90CF90BF90AF90089585ED8093BC0045
:1041400080911D0890911E08A0911F08B091200831
:104150000796A11DB11D23E0B695A7959795879564
:104160002A95D1F72091BC0024FD03C010926A0863
:10417000089540911D0850911E0860911F0870918C
:104180002008452B462B472B69F30097A105B10565
:1041900041F025E32A95F1F700000197A109B10943
:1041A000E1CF80911C080C940A0E680F791F5A9871
:1041B00025E42A95F1F7000000000000000000004F
:1041C0000000000028E030E041E0FC015081542371
:1041D00009F440C05A9AFAE4FA95F1F700C00000D9
:1041E00000000000000000000000000000000000CF
:1041F00000000000000000000000000000000000BF
:1042000000000000440F21503109F9F65A9AE0E508
:10421000EA95F1F700000000000000000000000037
:10422000000000000000000000000000000000008E
:10423000000000000000000000000000000000007E
:10424000000000000000000001966817790709F0DF
:10425000AECF08955A985AE45A95F1F700C000007D
:10426000000000000000000000000000000000004E
:104270000000000000000000000000000000C2CFAD
:10428000680F791F659BFECF2AE22A95F1F700C0DF
:10429000000038E020E0422F50E055954795242F4C
:1042A000E0E5EA95F1F700000000000000000000E2
:1042B00000000000659B2068315069F7F5E4FA952D
:1042C000F1F70000FC012193CF016E177F07D1F6B3
:1042D00008950F931F93CF93DF938C01EB010E94FE
:1042E000506D8883C80101960E94506D8983CE016C
:1042F000DF91CF911F910F910895CF92DF92EF92AE
:10430000FF920F931F93CF93DF93CDB7DEB72D9717
:104310000FB6F894DEBF0FBECDBF1A861B861C8673
:104320001D868091E31881113BC18091E9188111AC
:1043300037C11091E218111133C128E0812F90E0AC
:1043400095958795182F30E53A95F1F70000000014
:10435000000000000000659B1068215079F785E49B
:104360008A95F1F70000012F0F700093E8188091F3
:104370002B04043069F080912E04053049F08091BF
:104380002D04063029F0073009F069C280912C0411
:10439000882309F464C280E9800F8C87812F90E024
:1043A000B4E095958795BA95E1F78D30910509F0C0
:1043B000E0C104E014E087E592E00197F1F700C066
:1043C000000061E070E0CE010C960E94D52069E00B
:1043D00070E0CE0101960E944021898190E0A4E026
:1043E00095958795AA95E1F7069709F09AC187E513
:1043F00092E00197F1F700C0000061E070E0CE01AB
:104400000C960E94D52061E070E0CE010A960E94D1
:1044100040218F8190E0B0E0A0E0B82FAA27992733
:1044200088274E8150E070E060E0BA0155274427AC
:10443000840F951FA61FB71F4D8150E070E060E00C
:10444000762F652F542F4427840F951FA61FB71F63
:104450002C81820F911DA11DB11D8093AF189093E7
:10446000B018A093B118B093B2188F3E2EEB9207FC
:104470002DEAA2072EEDB20711F41092000220914E
:104480000002213051F4AA27BB278093AF189093E4
:10449000B018A093B118B093B2188A8590E054E098
:1044A000959587955A95E1F78430910509F005C1F6
:1044B0001092B518E091E818E450FF0BEE0FFF1FC3
:1044C000EE0FFF1FEF5FFD4F4081518162817381CD
:1044D0008091AF189091B018A091B118B091B21816
:1044E000481759076A077B0709F0E3C087E592E0A0
:1044F0000197F1F700C0000061E070E0CE010C967A
:104500000E94D52061E070E0CE010B960E94402110
:104510008B8590E034E0959587953A95E1F7039780
:1045200009F097C02091E8182450330B209FC00158
:10453000219F900D309F900D112464E074E081560E
:10454000974F0E94D52061E070E0CE010D960E9449
:1045500040218D8590E024E0959587952A95E1F797
:10456000C090AF18D090B018E090B118F090B21889
:104570008230910531F5E091E818E450FF0BC11449
:10458000D10490E4E906F10408F055C00E94B80D8A
:104590006093E4187093E5188093E6189093E718F9
:1045A00080E28CBB2D960FB6F894DEBF0FBECDBF58
:1045B000DF91CF911F910F91FF90EF90DF90CF90FF
:1045C00008950D9779F48BE096E00E94050C4AE07F
:1045D00050E0C701B6010E945C1E81E096E00E9497
:1045E000BA1DE9CE8AEE95E00E94050C4AE050E043
:1045F000C701B6010E945C1E8CED95E00E94050C7F
:104600008091E81890E060E170E080960E947D1E45
:104610008EEC95E00E94050C60E170E08D850E94B3
:10462000651E1091E818612F81E40E94B21B212FB2
:104630002450330BF901EE0FFF1FEE0FFF1FEF5F4A
:10464000FD4F8FEF9FEFDC0180839183A283B383C3
:104650009DCF87EB95E00E94050C6091AF1870919B
:10466000B0188091B1189091B2184AE050E00E94C1
:104670005C1E89EA95E00E94050C8091E81890E0A4
:1046800060E170E0C0960E947D1E8BE995E00E947B
:10469000050C60E170E08B850E94651E1091E818A2
:1046A000612F81E40E94B21B812F8450990BFC0181
:1046B000C2CF81E08093E31869CF0D9709F066CFF0
:1046C0001092B51887E592E00197F1F700C000005D
:1046D00061E070E0CE010C960E94D5202091E81890
:1046E0002450330B44E054E0249FC001259F900DDB
:1046F000349F900D112464E074E08156974F0E941E
:10470000402187E592E00197F1F700C0000061E0E9
:1047100070E0CE010C960E94D52081E08093E918CC
:1047200035CF89E995E00E94050C8091E8186AE090
:1047300070E08350990B0E947D1E85E895E00E94F1
:10474000050C8091E81890E06AE070E0805A9F4F75
:104750000E947D1E83E795E00E94050C60E170E0F9
:1047600089810E94651E6091E81882E40E94B21B54
:104770000DCF0197E9F587E592E00197F1F700C0C9
:1047800000002091E8182450330B46E0429FC001FE
:10479000439F900D112466E070E08354984F0E946F
:1047A000D52061E070E0CE010D960E94402110916D
:1047B000E818BE016F5F7F4F80E991E09C01129F76
:1047C000C001139F900D11240E94692189819A8153
:1047D000143049F464E0892B49F48091BD188111AB
:1047E00005C083E4C3CF612F892BD9F380E4BECF0A
:1047F00081E795E00E94050C6AE070E0202F2350CD
:10480000330BC9010E947D1E86E595E00E94050CD0
:1048100060E170E0812F0E94651E6091E81881E4DC
:104820000E94B21B87E592E00197F1F700C00000FB
:104830008091E8188054898361E070E0CE01019690
:104840000E94D52081E08093E1180E946E1DED98B2
:1048500084EC9DE09093250280932402A1CE0E94D7
:104860006E1D9ECE0C94506D2F923F924F925F9290
:104870006F927F928F929F92AF92BF92CF92DF9270
:10488000EF92FF920F931F93CF93DF9300D000D04E
:1048900000D01F92CDB7DEB79E838D833B015A8334
:1048A0004983DC018C9183FFEBC012968C9181FFD0
:1048B000E7C083FDD8C0E981FA81AF0170E060E014
:1048C000ED81FE8180899189A289B3898095909537
:1048D000A095B09584179507A607B70708F4D0C030
:1048E000C980DA8022242A94322C21013C96FC8350
:1048F000EB83ED81FE814089518962897389C114FE
:10490000D10409F47CC1868197818A019B0169E009
:1049100036952795179507956A95D1F7DC0113967B
:10492000EC910E237A01B1E0FB2201111FC0ED8151
:10493000FE814485558566857785E114F10409F08B
:1049400097C1411551056105710509F4A4C02B817A
:104950003C810E94821787FD93C0811107C08D8121
:104960009E810E94C71A882309F48AC0AD81BE8146
:104970001696ED91FC9117971C964D915D916D9156
:104980007C911F974250510961097109848104C0CB
:10499000440F551F661F771F8A95D2F7808991892A
:1049A000A289B389840F951FA61FB71FAC01BD0153
:1049B000400F511D611D711DE114F10429F4C11452
:1049C000B2E0DB0608F088C080E092E08E199F0913
:1049D00086018C159D0508F48C01E114F104A1F405
:1049E000AD81BE8150968D909D90AD90BC905397B7
:1049F00058968D919D910D90BC91A02D25E0881623
:104A00009906AA06BB0608F421E0CF0180960E9411
:104A1000AF150097A9F1A801B3018E0D9F1D0E944B
:104A20005770E00EF11EE114B2E0FB0649F4ED818F
:104A3000FE818681978180960E946D15882301F101
:104A4000ED81FE8180899189A289B389800F911FB0
:104A5000A11DB11D808B918BA28BB38B600E711E3B
:104A6000C01AD10A46CFAD81BE8158964D915D9155
:104A70006D917C915B97CD010E94981981111BCF9C
:104A8000AD81BE8111968C911197816011968C93A6
:104A90008FEF9FEFCDC0ED81FE81848D958DA68D2A
:104AA000B78D0097A105B10581F4CF010E94C71A07
:104AB000882331F3ED81FE8184859585A685B785B0
:104AC000848F958FA68FB78F51CFED81FE8184871C
:104AD0009587A687B7874ACF83A194A1A5A1B6A140
:104AE000C11424E0D20608F470C09601232F3327A6
:104AF00026958280801A912C2815390508F44901E1
:104B0000481759076A077B0770F0880D991DA11D8A
:104B1000B11D481759076A077B0728F410A223A282
:104B200034A245A256A2AD81BE811696ED91FC91AC
:104B3000E080F180F7018581833039F099E0440FFE
:104B4000551F661F771F9A95D1F79A01AB0169E14E
:104B5000C7010E94B514882351F083E3D7018C93D9
:104B6000C7010E942714C7010E94271489CF53014F
:104B700010E000E080ED97E008151905A1F00E9413
:104B80000C14811104C08BE5F7018083E9CFA501E6
:104B90006CEFC7010E948014882311F30F5F1F4F31
:104BA000FEEFBF1AE7CF0E940C14882351F0102F9C
:104BB0000027110F8DEF0E940014C7010E942714D7
:104BC0003FCF86E5D7018C93CECF481759076A07A8
:104BD0007B0729F410A223A234A245A256A2AD81DC
:104BE000BE811696ED91FC919301808191810E9486
:104BF000F814882309F444CF00E012E021CFED81BE
:104C0000FE81808D918DA28DB38D84179507A607A7
:104C1000B70738F48281408F518F628F738F846021
:104C20008283ED81FE81828187FD1BC089819A810B
:104C30002A960FB6F894DEBF0FBECDBFDF91CF919D
:104C40001F910F91FF90EF90DF90CF90BF90AF90AA
:104C50009F908F907F906F905F904F903F902F909C
:104C600008958D819E810E946D1B8111DFCF08CF39
:104C7000FC014250510961097109848104C0440F4B
:104C8000551F661F771F8A95D2F780899189A2895F
:104C9000B389480F591F6A1F7B1F96CE04960C9448
:104CA0003424CF93DF931F92CDB7DEB7698341E001
:104CB00050E0BE016F5F7F4F04960E9434240F9036
:104CC000DF91CF9108952F923F924F925F926F9212
:104CD0007F928F929F92AF92BF92CF92DF92EF928C
:104CE000FF920F931F93CF93DF9300D01F921F92D9
:104CF000CDB7DEB79D838C831B014A01DC018C910B
:104D0000882309F4EBC012969C91129790FFE6C09D
:104D100083FF1AC058968D919D910D90BC91A02D46
:104D2000EC81FD814089518962897389841B950BCF
:104D3000A60BB70BA40170E060E0481759076A079B
:104D40007B07C8F04C0117C085FF15C0AC81BD8141
:104D50001696ED91FC9117978681978155E0880F03
:104D6000991F5A95E1F750962D913C91821B930B18
:104D70008815990538F384011982EC81FD813C96F0
:104D8000FB83EA830115110509F44AC1EC81FD8119
:104D900080899189A289B3895C01F1E0BF22EC810D
:104DA000FD812081E680F7802C013D0149E0769469
:104DB0006794579447944A95D1F7F70125FF33C07C
:104DC000848D958DA68DB78D480E591E6A1E7B1E4B
:104DD000AC81BD811696ED91FC91A114B10409F04E
:104DE00088C00115B2E01B0708F483C043A154A199
:104DF00065A176A1441655066606770609F479C0C2
:104E0000011524E0120708F0A0C09101B301A2012E
:104E1000808191810E943E15882309F45FC0C12CD6
:104E200082E0D82E7FC0338134213983A114B104AC
:104E300091F4311110C0892B8A2B8B2BC1F526FFE1
:104E400033C0848D958DA68DB78DEC81FD818487CF
:104E50009587A687B787AC81BD811696ED91FC91A9
:104E600017971C964D905D906D907C901F97B2E0C7
:104E70004B1A510861087108848104C0440C551C08
:104E8000661C771C8A95D2F780899189A289B3899B
:104E9000840D951DA61DB71D2C013D01E9814E0E07
:104EA000511C611C711C94CFEC81FD81CACFAC8177
:104EB000BD811C964D915D916D917C911F972A81CA
:104EC0003B81C7010E94821787FD08C08111C3CFB3
:104ED000EC81FD818081807709F0A2C0AC81BD8129
:104EE00011968C911197826011968C938FEF9FEFA2
:104EF0009AC080E092E08A199B09680180179107A7
:104F000008F46C0120E0B301A201CF0180960E9459
:104F1000AF15009719F3BC016A0D7B1DA601C101F5
:104F20000E9457702C0C3D1CEC81FD818089918979
:104F3000A289B3898C0D9D1DA11DB11D808B918B04
:104F4000A28BB38B0C191D091DCF6801CD2CDD245C
:104F5000C694AC81BD818C9185FD08C08281B981E8
:104F60008B1B90E08C159D0508F46C0144165506CA
:104F700066067706D0F4AC81BD811696ED91FC9162
:104F8000E080F180F70185818330F9F4A30192017B
:104F900062E1C7010E94B5148823F9F081E3D701CB
:104FA0008C93C7010E94271499CF4C0D5D1D611D84
:104FB000711D4416550666067706E8F6CF01809601
:104FC0000E946D158111D7CF89CF29E0440C551C63
:104FD000661C771C2A95D1F7D9CF3101CA14DB049E
:104FE00069F0B301C7010E943C14882309F476CF0D
:104FF000BFEFAB1ABB0AEEEF7E1AF0CF20E030E035
:10500000A9016CE0C7010E94B514882311F088E261
:10501000C6CFDC2CCC24DD0CC7010E94271482CF24
:10502000C401801B910B0F900F900F900F900F9069
:10503000DF91CF911F910F91FF90EF90DF90CF9074
:10504000BF90AF909F908F907F906F905F904F90A8
:105050003F902F900895CF93DF931F92CDB7DEB787
:1050600041E050E0BE016F5F7F4F89E999E10E9406
:105070006326019731F4898190E00F90DF91CF9101
:1050800008958FEF9FEFF9CFEF92FF920F931F9349
:10509000CF93DF931F92CDB7DEB77C01962FF70138
:1050A00040895189628973898A019B0185E036951F
:1050B0002795179507958A95D1F70F7011F09111E3
:1050C0002BC041E050E0BE016F5F7F4FC7010E94DF
:1050D0006326813051F090E080E00F90DF91CF9116
:1050E0001F910F91FF90EF900895F70180899189AA
:1050F000A289B3894F96A11DB11D808B918BA28B84
:10510000B38BF701868197818796F0E20F9F90011C
:105110001124820F931FE1CF405E5F4F6F4F7F4F8F
:10512000408B518B628B738BECCF2F923F924F92BF
:105130005F926F927F928F929F92AF92BF92CF9227
:10514000DF92EF92FF920F931F93CF93DF93CDB730
:10515000DEB7A0970FB6F894DEBF0FBECDBF8C01AF
:105160006B0119821A8280919919882309F4C6C0AB
:105170006D30710508F4C2C080919C1981111EC068
:10518000C8010E94791A982E892DA0960FB6F8941E
:10519000DEBF0FBECDBFDF91CF911F910F91FF906A
:1051A000EF90DF90CF90BF90AF909F908F907F90C7
:1051B0006F905F904F903F902F9008958091A1192C
:1051C0009091A219A091A319B091A41960919F196F
:1051D0007091A019FE0131965F010097A105B105FC
:1051E00009F073C0CF010E94DB1E882309F486C03A
:1051F00066246394712CF12CE12C28014C0C5D1C6D
:10520000F1E04F1A510880919C19861508F476C078
:1052100040919D1950919E194619570970E060E020
:1052200085E0440F551F661F771F8A95D1F7C5018A
:105230000E949819982E882309F460C060E0C50187
:105240000E944428FC01892B09F458C083858F30C3
:1052500009F054C080818F71681250C0A8014E0DB2
:105260005F1D1F01970160E0D1016530E8F51196DF
:105270008D919C91009799F02C153D05D0F48F37B6
:10528000910510F08FE390E02F5F3F4FDA018D938F
:10529000AD016F5FB2E02B0E311C6D3029F72C157C
:1052A0003D0538F4808186FF04C0200F311FD901ED
:1052B0001C92D2011C92BDE0EB0EF11C2FEF621A82
:1052C000720A808186FF9FCF5FCF2CE111922A95D1
:1052D000E9F720E1298321E02B8378876F838D8F85
:1052E0009E8FAF8FB8A384CF6B3020F414968D912E
:1052F0009C91C0CF16968D919C91BCCFD8011C92E9
:10530000912C42CFCF92DF92EF92FF920F93CF93E7
:1053100080919919811116C08091E01B807791F0DE
:105320008091F01B9091F11BA091F21BB091F31BA7
:105330008F719927AA27BB2700E0C0E0892B8A2B11
:105340008B2B19F080E031C000E0C090F01BD090B2
:10535000F11BE090F21BF090F31B60E080EE9BE10C
:105360000E944428009771F3FC012081222351F30D
:105370002E3251F3253E41F3338533FD1DC000230A
:1053800021F00E948A198C13DDCFB701A60185E0B8
:1053900076956795579547958A95D1F720E060EE09
:1053A0007BE189E999E10E94F51ECF910F91FF9071
:1053B000EF90DF90CF9008953F3031F626FFC5CFB4
:1053C000022F0F71C585C1CF9F92AF92BF92CF922E
:1053D000DF92EF92FF920F931F93CF93DF93CDB79E
:1053E000DEB7A0970FB6F894DEBF0FBECDBF19820F
:1053F0001A82DC012C9123FF16C012962C9121FFFA
:1054000012C08C01FC01448D558D668D778D411540
:1054100051056105710549F461E0C8010E94591AFE
:105420007C01009749F480E074C0868197810E94D6
:1054300003188111F1CFF7CF0E948A19982E85EEBB
:10544000F7018083D8011C9216968D919C910E9441
:105450006A1B882341F3F8019381992309F459C009
:1054600080859185A285B385668177819E012F5FB6
:105470003F4F69010097A105B10509F05CC0C90162
:105480000E94DB1E882379F2EE24E394F12C25EEB2
:10549000A22ED80113968C9113978E1520F2149694
:1054A0004D915C914E195F0970E060E085E0440F1A
:1054B000551F661F771F8A95D1F7C6010E9498195C
:1054C000882309F4B0CF60E0C6010E944428FC01A3
:1054D000892B09F4A8CF83858F3009F0A4CF908160
:1054E000892F8F71E8129FCF858589119CCFA0826B
:1054F000D8011696ED91FC9180A1816080A3BFEF49
:10550000EB1AFB0A96FFC5CFF801868197810E94AE
:105510006A1BA0960FB6F894DEBF0FBECDBFDF9119
:10552000CF911F910F91FF90EF90DF90CF90BF90A0
:10553000AF909F9008952CE1F60111922A95E9F71A
:1055400020E1298321E02B8378876F838D8F9E8FC5
:10555000AF8FB8A399CFBF92CF92DF92EF92FF9215
:105560000F931F93CF93DF93FC018081882359F021
:1055700080E0DF91CF911F910F91FF90EF90DF902E
:10558000CF90BF900895DB019C91907789F3122F03
:105590007A01EB016F014115510509F444C04150F6
:1055A000510970E060E085E0440F551F661F771FCA
:1055B0008A95D1F7CD010E9498198823C9F260E03D
:1055C000CE010E944428FC01892B91F283858F3003
:1055D00069F580818F71813049F5B5840E2DB5E173
:1055E000EB16F10408F004E160E0CE010E944428CB
:1055F000009709F4BDCFFC012081253E09F4B8CF06
:10560000222309F4B5CF2E3209F4B2CF002321F0C2
:105610000E948A198B11ACCF212FA701BE01C601B0
:105620000E94F51EA6CFCB010E94651B00E0B12CA5
:10563000DBCFCF92DF92EF92FF920F931F93CF9326
:10564000DF93CDB7DEB7A0970FB6F894DEBF0FBEDD
:10565000CDBFFC0119821A829081907781F480E09D
:10566000A0960FB6F894DEBF0FBECDBFDF91CF91ED
:105670001F910F91FF90EF90DF90CF9008958F01D1
:10568000CF010E94651BF801C088D188E288F388A9
:1056900060E0C8010E944428009721F5F80181814B
:1056A0008111DDCFF8018081982F907609F075C0C7
:1056B00084FFD5CFC8010E94651B61E0C8010E942C
:1056C0004428009709F05AC0F80181818111C7CFA1
:1056D00088E0F8018083828182608283C8010E9411
:1056E000E429BECFFC0120812223E1F2253E59F2BC
:1056F0002E3249F2838583FDC6CF95E0F694E79478
:10570000D794C7949A95D1F720E0A601B801CE01AD
:1057100001960E94AB2A882309F4A1CF898184FFD6
:1057200025C0CE0101960E94192B882309F497CF3A
:10573000FFEFCF1ADF0AA60170E060E085E0440FBA
:10574000551F661F771F8A95D1F7F80180899189C7
:10575000A289B38984179507A607B70709F493CFE1
:10576000C8010E94981981118ECF79CF8B818260F8
:105770008B83CE0101960E94E429D7CFFC012081C2
:10578000222309F4A5CF253E09F497CF2E3209F440
:1057900094CF838583FD91CF62CF81E061CFAF92BB
:1057A000BF92CF92DF92EF92FF920F931F93CF930E
:1057B000DF93DC01CD90DC901197C114D10439F056
:1057C0001496CD91DC918C017601209761F4DF91E4
:1057D000CF911F910F91FF90EF90DF90CF90BF90EE
:1057E000AF90089575015701BFEFAB1ABB0AF701DF
:1057F0008081082E000C990B0E94106C892B91F768
:105800002197CC0DDD1D8881082E000C990B0E947C
:10581000106C892B29F0CE15DF0510F02197F3CFFE
:10582000AE014F5F5F4F4E195F09D80115965C932B
:105830004E931497CE14DF0420F4B701C6010E94E2
:105840005770D801ED91FC91119714968D919C9110
:10585000E80FF91F1082BBCFCF93DF93FC01C0810B
:10586000D181209761F08991882349F0082E000C9E
:10587000990B0E944270FE0131978083F4CFDF9133
:10588000CF910895FC0124813581232B39F421E047
:10589000FB018081882349F020E007C0808191814D
:1058A0000E946B7021E0892BB9F7822F08950F9326
:1058B0001F93CF93DF938C01EB01FC0180819181D9
:1058C0000097E1F06881798161157105A9F0428145
:1058D00053812C813D814217530770F00E947470F0
:1058E0008C819D81F801958384831D821C82DF91C8
:1058F000CF911F910F9108950E94ED688881998141
:10590000F801918380838A819B81938382838C8138
:105910009D8195838483198218821B821A82E5CF28
:10592000CF93DF93EC0188819981009711F00E9459
:10593000ED68198218821D821C821B821A82DF91F7
:10594000CF910895FC0180819181009711F00C9412
:10595000ED6808950F931F93CF93DF93EC01888137
:105960009981009759F02A813B812617370730F03B
:1059700081E0DF91CF911F910F9108958B016F5FAF
:105980007F4F0E94616F009759F0998388831B8332
:105990000A832C813D81232B59F7FC011082E8CF2B
:1059A00080E0E7CFEF92FF920F931F93CF93DF93A7
:1059B0006115710541F480E0DF91CF911F910F9146
:1059C000FF90EF90089541155105B1F07B01EC0176
:1059D0000C811D81040F151FB8010E94AA2C882379
:1059E00051F3288139818C819D81B701820F931FEA
:1059F0000E9474701D830C8381E0DECFCF93DF9310
:105A0000EC01FB0101900020E9F73197AF01461B43
:105A1000570B0E94D22C811103C0CE010E94902C02
:105A2000CE01DF91CF910895CF93DF93EC01FB017D
:105A300044815581608171810E94D22C811103C003
:105A4000CE010E94902CCE01DF91CF910895EF926C
:105A5000FF920F931F93CF93DF93EC017B018A0199
:105A6000BA010E94AA2C81110BC0CE010E94902C79
:105A7000CE01DF91CF911F910F91FF90EF9008958C
:105A80001D830C83B701888199810E947470F0CFC7
:105A9000FB0101900020E9F73197AF01461B570B3E
:105AA0000C94272D0F931F93CF93DF9300D000D03A
:105AB00000D0CDB7DEB78C01862FF801118210829D
:105AC00013821282158214824AE0BE016F5F7F4FFB
:105AD00090E00E94A569BE016F5F7F4FC8010E94E0
